:020000040000FA
:060000003BEF04F01200CA
:0A00060001009808000060000000EF
:0400100020000000CC
:0C001400F00E936E49EC04F0F70E816EC4
:10002000000081B80FD000017E0504E1F368F46898
:10003000CFD008D0936A0001010E7E6F010EF36EDF
:10004000F46AC6D081BA0FD000017E0504E1F368DE
:10005000F468BED008D0936A0001010E7E6F040ED2
:10006000F36EF46AB5D081BC0FD000017E0504E1C7
:10007000F368F468ADD008D0936A0001010E7E6F7A
:10008000070EF36EF46AA4D081BE0FD000017E0586
:1000900004E1F368F4689CD008D0936A0001010E73
:1000A0007E6FFE0EF36EF46893D0FB0E816E00003F
:1000B00081B80FD000017E0504E1F368F46888D0B0
:1000C00008D0936A0001010E7E6F020EF36EF46A8F
:1000D0007FD081BA0FD000017E0504E1F368F46897
:1000E00077D008D0936A0001010E7E6F050EF36E83
:1000F000F46A6ED081BC0FD000017E0504E1F36884
:10010000F46866D008D0936A0001010E7E6F080E75
:10011000F36EF46A5DD081BE0ED000017E0504E16D
:10012000F368F46855D007D0936A0001010E7E6F22
:10013000F36AF46A4DD0FD0E816E000081B80FD0D5
:1001400000017E0504E1F368F46842D008D0936AA8
:100150000001010E7E6F030EF36EF46A39D081BA8E
:100160000FD000017E0504E1F368F46831D008D0B7
:10017000936A0001010E7E6F060EF36EF46A28D0BA
:1001800081BC0FD000017E0504E1F368F46820D043
:1001900008D0936A0001010E7E6F090EF36EF46AB7
:1001A00017D081BE0FD000017E0504E1F368F4682A
:1001B0000FD008D0936A0001010E7E6FFD0EF36E22
:1001C000F46806D0936A00017E6BF368F46800D08F
:1001D0001200926A936A946A956A966A0F0EC16ECB
:1001E000806A816A826A836A846A1200D9CFE6FFD4
:1001F000E1CFD9FF0B0EE1263F0EDF6EDE52060E79
:10020000DD6E5B0EF36E020EF3CFDBFF4F0EF36E6F
:10021000030EF3CFDBFF660EF36E040EF3CFDBFFAE
:100220006D0EF36E050EF3CFDBFF7C0EF36E060E44
:10023000F3CFDBFF070EF36EF3CFDBFF7F0EF36E22
:10024000080EF3CFDBFF670EF36E090EF3CFDBFF73
:100250000A0EDB6A0001645165110DE0010E62199E
:1002600001E1635108E17F0503E0020E7F5D03E1D8
:10027000030E7F6F10D0645165110DE0020E6219FC
:1002800001E1635108E1030E7F5D03E0040E7F5D31
:1002900002E1010E7F6F849484908094809A7F05A0
:1002A00019E1D9CF02F0DACF03F0FE0EDB500F01D7
:1002B0000224E96E000E0320EA6EEF50836E848400
:1002C0000001020E7F6F010E601901E1615101E131
:1002D000838E53D0020E7F5D19E1D9CF02F0DACFC1
:1002E00003F0FD0EDB500F010224E96E000E032027
:1002F000EA6EEF50836E84800001030E7F6F010E63
:10030000601901E1615101E1838E37D0030E7F5DF9
:1003100019E1D9CF02F0DACF03F0FC0EDB500F0168
:100320000224E96E000E0320EA6EEF50836E808493
:100330000001040E7F6F020E601901E1615101E1BD
:10034000838E1BD0040E7F5D18E1D9CF02F0DACF87
:1003500003F0FB0EDB500F010224E96E000E0320B8
:10036000EA6EEF50836E808A0001010E7F6F020EED
:10037000601901E1615101E1838E605161111EE15B
:1003800076516A1902E177516B1918E178516C19AD
:1003900002E179516D1912E17A516E1902E17B5136
:1003A0006F190CE17C51701902E17D51711906E160
:1003B0006451651102E0839E01D0838E0B0EE15CD7
:1003C00002E2E16AE552E16EE552E7CFD9FF1200A1
:1003D000D9CFE6FFE1CFD9FF040EE126DE6ADD6A60
:1003E00019DEF3CFDEFFF4CFDDFFD9CFE9FFDACF9F
:1003F000EAFFFF0EEE1802E1FF0EED1801E180D0DA
:10040000D9CFE9FFDACFEAFFFE0EEE1802E1FF0EC8
:10041000ED1814E100016051611104E1010E606FFB
:10042000616B0BD0010E601901E1615104E1020E14
:10043000606F616B02D0606B616B62D0D9CFE9FFF6
:10044000DACFEAFFFD0EEE1802E1FF0EED1814E11F
:1004500000016251631104E1010E626F636B0BD006
:10046000010E621901E1635104E1020E626F636BD8
:1004700002D0626B636B44D0020EDB6A030EDB6A50
:10048000020EDBCF02F0030EDBCF03F0D890035057
:1004900004E60A0E025C000E035832E200016251CB
:1004A00063112EE0020EDB50DF1804E1030EDB5077
:1004B000DE52DD181FE1661D01E1671D0EE1020E2F
:1004C000DBCF66F0030EDBCF67F00A0EF36E020E91
:1004D000F3CFDBFF030EDB6A0DD0020EDBCF68F03B
:1004E000030EDBCF69F00A0EF36E020EF3CFDBFFD3
:1004F000030EDB6A020EDB2A030E01E3DB2AC0D700
:100500000001673504E266510508000E675502E2F6
:10051000666B676B020E67AF02D0D89003D0665D42
:10052000000E675911E3693504E268510308000EB3
:1005300069550AE2010E621901E1635105E1000EFD
:10054000666F676B686F696B040EE15C02E2E16ADB
:10055000E552E16EE552E7CFD9FF12000001010E2E
:10056000621901E1635113E16051611110E166C04C
:100570006AF067C06BF068C06CF069C06DF0020E85
:10058000626F636B666967696869696949D0020E61
:10059000621901E1635112E1605161110FE166C01E
:1005A0006EF067C06FF068C070F069C071F0626B88
:1005B000636B666967696869696932D0010E62199F
:1005C00001E1635115E1020E601901E1615110E191
:1005D00066C076F067C077F068C078F069C079F0DF
:1005E000020E626F636B666967696869696918D032
:1005F000020E621901E1635113E1020E601901E17B
:1006000061510EE166C07AF067C07BF068C07CF093
:1006100069C07DF0626B636B666967696869696967
:1006200012000001605161110EE170C0E6FF6EC062
:10063000E6FF6CC0E6FF6AC0E6FFD8DDE552E55292
:10064000E552E55225D0010E601901E161510EE13C
:1006500074C0E6FF72C0E6FF70C0E6FF6EC0E6FF42
:10066000C5DDE552E552E552E55212D0020E6019A1
:1006700001E161510DE17CC0E6FF7AC0E6FF78C080
:10068000E6FF76C0E6FFB2DDE552E552E552E552FF
:1006900012000001642B000E6523020E65AF02D02C
:1006A000D89003D0645D000E655946E3646B656BBA
:1006B000742B000E75230A0E745D000E75593CE311
:1006C000746B756B722B000E7323060E725D000E39
:1006D000735932E3726B736B702B000E71230A0E29
:1006E000705D000E715928E3706B716B6E2B000EFC
:1006F0006F23060E6E5D000E6F591EE36E6B6F6BFF
:100700006C2B000E6D230A0E6C5D000E6D5906E316
:100710006C6B6D6B6A2B000E6B230ED0020E6A1988
:1007200001E16B5109E1040E6C1901E16D5104E125
:100730006A6B6B6B6C6B6D6B1200D9CFE6FFE1CF10
:10074000D9FFE65246DD44DE0001010E621901E1E7
:10075000635105E0020E621901E1635105E1681D74
:1007600001E1691D01E0FADE080EE66E1BEC04F003
:10077000E552770EDF5C02E0DF2A07D0DF6A030E66
:10078000E66E1BEC04F0E55284DF4BDFDCD7E5526C
:08079000E552E7CFD9FF12008A
:08079800060EF66E000EF76E6E
:1007A000000EF86E00010900F550856F0900F55044
:1007B000866F03E1856701D03DD00900F550806F59
:1007C0000900F550816F0900F550826F090009009A
:1007D000F550E96E0900F550EA6E090009000900BC
:1007E000F550836F0900F550846F09000900F6CFBA
:1007F00087F0F7CF88F0F8CF89F080C0F6FF81C08E
:10080000F7FF82C0F8FF0001835302E1845307E041
:100810000900F550EE6E8307F8E28407F9D787C028
:10082000F6FF88C0F7FF89C0F8FF00018507000EBA
:06083000865BBFD7120039
:0A083600FF0EE350046E480E01D0DF
:100840004C0EE76EE72EFED7E76AE72EFED7042EA2
:06085000F7D700001200C2
:0A085600000EF36E00EE00F0080E35
:1008600001D81200EA6002D0EE6AFCD7F350E960CA
:060870001200EE6AFCD745
:0A08760013EE00F023EE00F0F86A24
:10088000019CCCEC03F04BEC04F09DEC03F0FBD7A7
:02089000120054
:04089200F19E1200C1
:0208960012004E
:08089800000000000000FFFF5A
:1008A000FFFF00000000000000000000000000004A
:0808B00000000000000000013F
:020000040030CA
:010001000CF2
:010002001FDE
:010003001EDE
:0100050001F9
:010006008178
:00000001FF
